:100000000C9457040C949E040C949E040C949E042F
:100010000C949E040C949E040C949E040C949E04D8
:100020000C949E040C949E040C94072B0C94D92BD6
:100030000C940F200C949E040C949E040C949E042B
:100040000C949E040C949E040C949E040C949E04A8
:100050000C949E040C945C200C949E040C949E04BE
:100060000C949E040C949E040C949E040C949E0488
:100070000C949E040C949E040C949E040C949E0478
:100080000C949E040C949E040C949E040C949E0468
:100090000C949E040C949E040C949E040C949E0458
:1000A0000C949E040C949E040C949E04D40FD70FC1
:1000B000DF0FE40FE90FEE0FF30FF80FFD0F021043
:1000C00007100C100E101110141017101A101D101C
:1000D0001F1024107C157C15AE15AE15FB151916D6
:1000E0003A173A172416B916CA16CA162A173A1713
:1000F0003A173317DA17DA17EC17EC17E317EC1780
:10010000EC17EC17DA17DA17E817EC17EC17E81703
:10011000DA25D025DD252526292629262526292666
:100120002926FE25292608261226292629262926BB
:10013000292625262926292625262926EB2529268E
:100140002926222622262226222622262226222668
:100150002226222627262926DA25CD2529262926E4
:100160002926292629262926292629262926292617
:100170002726292629262526292620262026202628
:100180002026202620262026202620262726462C0C
:100190006D2C652D6D2C652DB92CDC2C652D332D2A
:1001A000422D29001E001F002000210022002D00EA
:1001B00004532E00230024002500260027002A00D7
:1001C0002B0014001A000800150017005F006000E3
:1001D00061001C0018000C00120013004C003900D4
:1001E00004001600070009000A005C005D005E00C4
:1001F0000B000D000E000F0033002800E1001D0071
:100200001B0006001900050059005A005B00110090
:100210001000360037003800E500E000E300E2009F
:1002200035002F002C000151620001512C003000DC
:100230003100E600E700E40029003A003B003C0002
:100240003D003E004400000045003F0040004100EA
:10025000420043002A002B000000BE00BD00AA009F
:10026000A9004A0052004B00C85CC75CCA5CC95C6C
:10027000C35C4C0039000000AC00AD00AE00AB0028
:10028000500051004F005000510052004F00C25C1E
:100290002800E10000007B007C007D007E004D0016
:1002A00046004E00005C0000C65CC55CC45CE50016
:1002B000E000E300E20035002F002C0001004900BF
:1002C00001002C0030003100E600E700E4000100EE
:1002D0000100010001000100010001000100010016
:1002E0000100010001000100010001000100010006
:1002F00001000100010001000100010001000100F6
:1003000001000100010001000100010001000100E5
:1003100001000100010001000100010001000100D5
:1003200001000100010001000100010001000100C5
:1003300001000100010001000100010001000100B5
:1003400001000100010001000100010001000100A5
:100350000100010001000100010001000100010095
:10036000010001000000000000000000000000008B
:10037000000000530000000000000000000000002A
:10038000000000000000000000000000000000006D
:10039000000000000000000000000000000000005D
:1003A000000000000000000000000000000000004D
:1003B000000000000000000000000000000000003D
:1003C000000000000000000000000000000000002D
:1003D000000000000000000000000000000000001D
:1003E000000000000000000000000000000000000D
:1003F0000000000000000000000029001E001F0097
:100400002000210022004B0001004E0023002400A8
:100410002500260027002A002B0014001A000800DF
:10042000150017002D0052002E001C0018000C00B3
:10043000120013004C0039000400160007000900E8
:100440000A00500051004F000B000D000E000F007D
:1004500033002800E1001D001B0006001900050004
:10046000350046003100110010003600370038001A
:10047000E500E000E300E2004A002F002C000551F7
:10048000280005512C0030004D00E600E700E40094
:1004900029003A003B003C003D003E0044000000C3
:1004A00045003F0040004100420043002A002B006D
:1004B0000000BE00BD00AA00A9005F00600061004E
:1004C000C85CC75CCA5CC95CC35C4C0039000000F6
:1004D000AC00AD00AE00AB005C005D005E00500003
:1004E000510052004F00C25C2800E10000007B0078
:1004F0007C007D007E0059005A005B000000000077
:10050000C65CC55CC45CE500E000E300E2004A00B4
:100510002F002C000100620001002C0030004D0073
:10052000E600E700E40032190A00047F3F1F64324E
:1005300014643214783C1E1E140A05222325262832
:10054000292A2C2D2F3032333536383A3B3D3E4068
:1005500042434547494A4C4E5051535557595A5CAE
:100560005E6062646668696B6D6F71737577797BC5
:100570007D7F81838587898A8C8E90929496989AC4
:100580009C9E9FA1A3A5A7A8AAACAEAFB1B3B4B6D9
:10059000B8B9BBBCBEBFC1C2C3C5C6C7C9CACBCC34
:1005A000CDCED0D1D2D2D3D4D5D6D7D7D8D9D9DA07
:1005B000DADBDBDBDCDCDCDCDCDDDDDDDDDCDCDC7C
:1005C000DCDCDBDBDBDADAD9D9D8D7D7D6D5D4D3A4
:1005D000D2D2D1D0CECDCCCBCAC9C7C6C5C3C2C179
:1005E000BFBEBCBBB9B8B6B4B3B1AFAEACAAA8A7D6
:1005F000A5A3A19F9E9C9A98969492908E8C8A898E
:10060000878583817F7D7B79777573716F6D6B696A
:1006100068666462605E5C5A5957555351504E4C3F
:100620004A4947454342403E3D3B3A3836353332EE
:10063000302F2D2C2A292826252322FFAA7F55403A
:100640000001010101010101010102020202020295
:100650000202020303030303030303040404040468
:10066000040405050505050606060606070707072F
:100670000708080808090909090A0A0A0B0B0B0CE4
:100680000C0C0D0D0D0E0E0E0F0F0F101011111181
:100690001212131314141515161617171818191902
:1006A0001A1A1B1B1C1D1D1E1E1F20202122222367
:1006B0002424252626272829292A2B2C2D2D2E2FA8
:1006C00030313232333435363738393A3B3C3D3EBF
:1006D0003F404142434445464748494A4C4D4E4FAE
:1006E00050515354555658595A5B5D5E5F61626470
:1006F000656668696B6C6D6F7072737577787A7BFD
:100700007D7E8082838587888A8C8E8F9193959653
:10071000989A9C9EA0A2A3A5A7A9ABADAFB1B3B573
:10072000B7BABCBEC0C2C4C6C9CBCDCFD1D4D6D84F
:10073000DBDDDFE2E4E7E9EBEEF0F3F5F8FAFDFFED
:100740000403300000000A0358004400370035005D
:1007500000000C0378006900750064006900000067
:100760000403090409023B00020100A0FA09040085
:1007700000010301010009211101000122400007CD
:1007800005810308000A09040100010300000009B3
:10079000211101000122BC000705820320000A127A
:1007A0000110010000000844787575010001020382
:1007B0000105010902A10185020901A1000509192C
:1007C0000129051500250195057501810295017521
:1007D0000381010501093009311581257F950275D5
:1007E00008810609381581257F9501750881060560
:1007F0000C0A38021581257F950175088106C0C055
:1008000005010980A101850319012AB700150126F8
:10081000B700950175108100C0050C0901A1018583
:100820000419012AA002150126A002950175108164
:1008300000C005010906A1018505050719E029E7A2
:10084000150025019508750181020507190029EF9A
:100850001500250195F0750181020508190129058A
:10086000950575019102950175039101C005010976
:1008700006A101050719E029E7150025019508756E
:100880000181029501750881010507190029FF15ED
:100890000026FF0095067508810005081901290545
:1008A000950575019102950175039101C000112410
:1008B0001FBECFEFDAE0DEBFCDBF04B603FE27C018
:1008C0008091230390912403A0912503B0912603E6
:1008D0008730904BA740B04BD1F410922303109275
:1008E0002403109225031092260314BE84B7877F39
:1008F00084BF0FB6F894A8958091600088618093BA
:100900006000109260000FBEE0E0F8E3099511E08E
:10091000A0E0B1E0ECE0FEE502C005900D92A83D3C
:10092000B107D9F723E0A8EDB1E001C01D92A332D1
:10093000B207E1F70E9445280C94042F0C940000A4
:100940000C949A070C94C6040C941C052A9A0895DA
:10095000229A0C94A6048F9A0895879A0C94AB045B
:100960008C980895849A0C94B0048D9A0895859A71
:100970000C94B5040E94A8040E94AD040E94B20425
:100980000E94B7040C949C0781E0089581E00895CB
:1009900008950C94C8041F93CF93DF9300D000D028
:1009A0001F92CDB7DEB749835A836B8330911A0209
:1009B00089819A81311114C0662359F0222349F0AC
:1009C0000E94161D182F682F89819A810E94BF1CD2
:1009D00003C00E94EA1C182F69817A81812F04C00C
:1009E0000E94161D69817A810F900F900F900F90D1
:1009F0000F90DF91CF911F910C948105FC01262F60
:100A0000408151816281738184810C94CB04CF93A6
:100A1000DF93EC0160E00E94FE04BE01DF91CF9104
:100A20000C94C9040E94481E811102C00E94F21E4B
:100A30000C94BA040C94A004089581E008950C94D9
:100A40001D05CF93C82F0E94A4048C2F0E941F0560
:100A5000CF91089508950E94C8170E942A052FEF8C
:100A600084E39CE0215080409040E1F700C000000A
:100A70000C9482200F931F93CF93DF93EC0161E0DE
:100A80000E94FE048C01BE010E94A204882379F119
:100A9000BE01C8010E94F110882349F1BE01C801BE
:100AA0000E944311882319F1BE01C8010E946E12F1
:100AB0008823E9F0BE01C8010E94BD0F8823B9F068
:100AC0008A81882369F001158CE5180731F00E3D05
:100AD0001C4531F40E94F21E0AC00E942B0507C07B
:100AE000CE01DF91CF911F910F910C94C40480E04F
:100AF000DF91CF911F910F91089580E090E00895CC
:100B000008952BE4829FC0011124FC012FE0729F05
:100B1000E00DF11D1124E60FF11DEE0FFF1FEE5544
:100B2000FE4F859194910895880F991FFC01EA5D0D
:100B3000FA4F859194910895CF93DF930E94810598
:100B40000E94B406EC018115904508F041C0C11522
:100B500080E4D80708F0D1C0C83ED10510F5C03EEA
:100B6000D10508F0FDC0C83AD10578F4C53AD105E1
:100B700008F0A2C0C130D10509F4F2C008F4EEC0FB
:100B8000C430D10508F0ECC0E9C0CF3BD10508F472
:100B90009BC0C03CD10508F4E1C0CE01805C910946
:100BA0009EC0C11590E2D90758F4C11521E0D207C3
:100BB00008F0D6C0C03FD10508F4D0C0D065D0C081
:100BC000C11580E3D80708F08EC0CE019F7087C0A2
:100BD000C11595E5D90708F043C0C11524E5D20732
:100BE00008F0A2C0C11582E5D80708F5C11591E546
:100BF000D90708F085C0CE0174E0969587957A955F
:100C0000E1F783709C2F937021E030E002C0220F47
:100C1000331F9A95E2F73C68382BCF70C695C6957E
:100C200080E2C89FE0011124C22BD32B99C09E0102
:100C3000237033278C2F86958695C115D34508F0F0
:100C400064C0C1E0D0E002C0CC0FDD1F2A95E2F7FE
:100C500020E2829FC0011124C82BD92BDC6880C000
:100C6000C11529E5D207A0F4C11588E5D80708F019
:100C700060C0C11596E5D90708F070C08C2F0E949E
:100C800048078F71C82FD0E0DC2FCC27D06268C016
:100C9000C1152AE5D20708F451C0CE01905681153E
:100CA000904208F05BC08D2F8F710E944807DD27AE
:100CB000D0628F71D82B54C0C55AD0E0C65ADE4FCF
:100CC000C881D0E0D0644CC0C85AD0E0CC0FDD1F42
:100CD000C45DDE4F0990D881C02DD46441C00E940C
:100CE0009405EC013DC0CE019927D3FF03C0EC0170
:100CF000D86C36C0EC01D06C33C0DF70D06A30C025
:100D0000DC2FCC27C16FD06A2BC0C1E0D0E002C07D
:100D1000CC0FDD1F2A95E2F720E2829FC00111244B
:100D2000C82BD92BDA681CC0DC2FCC27C46FD06A43
:100D300017C0DC2FCC27C06FD06A12C08C2F8F70E9
:100D40000E94480794E0D695C7959A95E1F7CF7031
:100D5000D0E0DC2FCC27D069C82B02C0C0E0D0E0A7
:100D6000CE01DF91CF9108958238910569F1B0F4F9
:100D70008133910509F46DC048F48932910509F475
:100D800063C08A32910509F469C0089585339105DD
:100D900009F455C089339105B9F00895833E910552
:100DA00069F138F4803E9105B1F0823E910509F178
:100DB0000895863E9105A9F1873E9105B9F1843EDB
:100DC000910509F064C023C02091140320FD4FC099
:100DD00021FD4DC008958091140380FD44C0809191
:100DE000150380FF44C08091140384FD42C083EE4C
:100DF0004DC08091140382FF38C0F5CF8091140359
:100E000082FD33C08091150380FD31C0ECCF80910D
:100E1000150381FF32C08091140384FD2AC087EE40
:100E200035C08091140383FF26C0F5CF8091140351
:100E300083FD21C08091150381FD1FC0ECCF8091FF
:100E4000140385FD1CC01DC08091140385FD19C0CD
:100E500016C08091140386FD16C017C0809114033C
:100E600086FD13C010C089E311C082EE0FC080EE72
:100E70000DC080E00BC086EE09C084EE07C089E299
:100E800005C085E303C08AE201C081E390E00895D4
:100E90009091140392FF0DC0282F2871283019F467
:100EA000877F846006C0282F2471243011F48B7F43
:100EB000886093FF0DC0282F2871283119F4877E90
:100EC000846106C0282F2471243111F48B7E88613F
:100ED0002091150320FF0DC0382F3871383019F4D8
:100EE000877F816006C0382F3171313011F48E7FD9
:100EF000886021FF0DC0282F2871283119F4877EC2
:100F0000816106C0282F2171213111F48E7E886104
:100F100094FD877E0895E82FF0E0EE0FFF1FE1516A
:100F2000FD4F808191810895089580EA8A95F1F7B7
:100F3000089508950C9499070C949907CF93DF9323
:100F4000ACE6B1E041E751E061E070E08D91E82F5F
:100F5000E295EF70F0E021A18F70EB0102C0CC0FA1
:100F6000DD1F8A95E2F7CE019C2F9095922391A3E5
:100F700092A1892B82A34A175B0741F7ADE5B1E047
:100F80004CE651E061E070E08D91E82FE295EF7062
:100F9000F0E021A18F70EB0102C0CC0FDD1F8A951C
:100FA000E2F7CE019C2F9095922391A392A1892BD9
:100FB00082A34A175B0741F7E5EEF2E0AFEEB2E03D
:100FC0008FEE92E0119211921D921D928E179F0743
:100FD000C9F785E00E947D08DF91CF910C9412053E
:100FE0006F927F928F929F92AF92BF92CF92DF9239
:100FF000EF92FF920F931F93CF93DF938CE6C82E4F
:1010000081E0D82E05EE12E09FEEA92E92E0B92ED7
:10101000712C88248394912CF60181916F01C82F43
:10102000C295CF70D0E099A18F70740101C0EE0C11
:101030008A95EAF7892F8E2989A38AA16E2C60945C
:1010400086218AA30E949507EDE5F1E040E050E09B
:1010500020E030E06191A62FA295AF70B0E09096AD
:101060008C9190E06F7002C0959587956A95E2F734
:1010700080FD08C0C401042E02C0880F991F0A9485
:10108000E2F702C080E090E0282B392B4F5F5F4FE2
:101090004F305105F9F689A1682269A28AA1E82A90
:1010A000EAA2F801808191812817390721F0318364
:1010B000208381E001C080E0782A0E5F1F4FA016D8
:1010C000B10609F0A9CF272D45E06FEE72E085EE5D
:1010D00092E00E947E080E941A05872DDF91CF9131
:1010E0001F910F91FF90EF90DF90CF90BF90AF9046
:1010F0009F908F907F906F9008950895FF920F9327
:101100001F93CF93DF93F82E092F162FD72FC42FBD
:10111000222349F081E08093DA010E9441209093DC
:10112000D9018093D8018091DA018823D9F0809188
:10113000D8019091D9010E944D20069798F0EF2D8B
:10114000F02FA12FBD2F80E090E04C2F50E08417AE
:10115000950734F4219131912D933D930196F7CF6A
:101160001092DA01DF91CF911F910F91FF900895B6
:10117000EF92FF920F931F93CF93DF938B01682F12
:1011800011110AC0442329F0E82FF0E0E05CF94F88
:101190006491762F862F75C0212F30E0E82FF0E084
:1011A000442321F0E05CF94FE491F0E046E0049F35
:1011B000C0011124CFEFD0E0BE010E94B32D4BEA55
:1011C0004603C001479F900D1124800F911D800F91
:1011D000911D982F990F890FAE01421B530B4E9F03
:1011E000D0014F9FB00D5E9FB00D11249B2F189F13
:1011F000A0011124452F55278E01041B150B0E9FAE
:10120000A0010F9F500D1E9F500D11247E01E81A62
:10121000F108E29E8001E39E100DF29E100D112454
:10122000212F3327C21BD30BCE9F9001CF9F300DB0
:10123000DE9F300D112462307105A9F048F461156C
:10124000710569F061307105C9F48B2F752F0DC0E0
:101250006430710581F058F06630710579F47E2FA5
:101260008B2F932F0DC0832F7B2F9E2F09C08E2F86
:101270007B2F952F05C08E2F732F02C07E2F852FB9
:10128000692FDF91CF911F910F91FF90EF900895FB
:1012900041E00E94B80808950895CF93DF93762F18
:1012A000E901682F842F0E944809798368838A8323
:1012B000DF91CF9108958091F902282F269530E093
:1012C0002115310519F48170826005C02B3231057A
:1012D00024F0817084658093F902089588E090E09D
:1012E0000C94A52ECF92DF92EF92FF926B017C01BE
:1012F0000E945B09B701A60188E090E0FF90EF90A3
:10130000DF90CF900C94C32EE9EFF2E083E080836E
:1013100011828FEF82838383148260817181828145
:1013200093810C9472098091F90280FF02C0869526
:10133000089580E008959091FD02933018F49F5F26
:101340009093FD02882351F06091F9027091FA02A6
:101350008091FB029091FC020C947209089581E047
:101360000C949B099091FD02992319F09150909350
:10137000FD02882351F06091F9027091FA02809188
:10138000FB029091FC020C947209089581E00C9488
:10139000B20970E00C942E10609108018091F9025E
:1013A00080FF0AC08091070123E0829FC0011124C1
:1013B00082509D4F0C94C9098091090190910A01B6
:1013C000891780F7E82FF0E09F01220F331FE20F0B
:1013D000F31FE250FD4F1182108212828F5FF0CF17
:1013E0009091F90290FF16C09091090120910A0195
:1013F000921770F4E92FF0E0DF01AA0FBB1FEA0F8C
:10140000FB1FE250FD4F8183608342839F5FF0CFDB
:101410000C94CC090895CF93DF9300D01F92CDB7E1
:10142000DEB79091F90290FF0AC09E012F5F3F4FF7
:101430000E944D094B8169818A810E94F0090F90B9
:101440000F900F90DF91CF910895CF93DF93EC0130
:10145000EC81F0E0E55CFA4F4491E9EFF2E0628163
:1014600081810E940B0A8C818F5F8C83DF91CF91E9
:101470000895CF93DF93EC01E9EFF2E043816281BD
:101480008C810E940B0A8C818F5F8C83DF91CF91BE
:1014900008950F931F93CF93DF9300D01F92CDB782
:1014A000DEB78C018091DB0181110AC09E012F5FA4
:1014B0003F4F4FEF6FEF0E944D098A818093DB0110
:1014C000F8018481813051F028F0823061F440913C
:1014D000DB010AC08091DB0140E007C06091DB01C5
:1014E00040E080E003C040E080E060E00E94F0095E
:1014F000F801848190E0019663E070E00E94C72DBE
:1015000084830F900F900F90DF91CF911F910F91D7
:101510000895AF92BF92CF92DF92EF92FF920F9316
:101520001F93CF93DF9300D01F92CDB7DEB7182F54
:10153000F62E042FE22E9091F90290FF6DC0E92F54
:10154000E695AE2FB0E0AF58BE4F8C91809303026A
:101550009E7F923061F49E012F5F3F4F812F0E944A
:101560004D094B8169818A810E94F00943C0823014
:1015700019F40091FC023EC0863019F41091FA0271
:1015800039C08930D9F38931A9F5E9518E2F81709D
:10159000D82EE695F0E0E55CF94FA590B490C12C0B
:1015A000BB2460910B01C61618F52C2D30E0A29ECD
:1015B000C001A39E900DB29E900D112470E00E9478
:1015C000B32D812FD11002C0860F01C0861B9091D0
:1015D0000901290F311DA901440F551F240F351F83
:1015E00022503D4F402F6F2D0E944D09C394D9CFFB
:1015F0000E94CC091093FA02F092FB020093FC02C5
:10160000EE2051F06091F9027091FA028091FB0294
:101610009091FC020E9472090F900F900F90DF9141
:10162000CF911F910F91FF90EF90DF90CF90BF90DF
:10163000AF900895E9EFF2E09181282F4381628114
:101640008CE0890F0C94890A81E00C941A0BE9EF65
:10165000F2E09181282F4381628184EF890F0C94FD
:10166000890A81E00C94270BE9EFF2E0628129E11D
:10167000620F08F46FEF282F438181810C94890A4F
:1016800081E00C94340BE9EFF2E0628129E1621B06
:1016900008F460E0282F438181810C94890A81E05D
:1016A0000C94430BE9EFF2E043812CE0420F08F485
:1016B0004FEF282F628181810C94890A81E00C947C
:1016C000520BE9EFF2E043812CE0421B08F440E0CA
:1016D000282F628181810C94890A81E00C94610B2E
:1016E00020E00C94890AFF920F931F93CF93DF930E
:1016F000EC01F12C0FEF10E060910B01F616F0F405
:10170000809109012F2D30E0280F311DC901880F6C
:10171000991F280F391F22503D4F70E0C8010E94C9
:10172000C72D962F8C814091FC026091FB02F99E9F
:10173000800D11240E944D09F394DECF0E94CC0944
:101740009A818C8190FF02C08F5F01C081508C8391
:10175000DF91CF911F910F91FF900895AF92BF92AB
:10176000CF92DF92EF92FF920F931F93CF93DF936D
:10177000FC01828180FF02C00FEF01C001E010E098
:1017800046E0A42E80910B01181708F043C0809109
:101790000901C12ED12CE601C80FD11DCE01880F41
:1017A000991FC80FD91FC250DD4F198218821A82A3
:1017B00034E0E32EF12CB12C8091DD018B0D8730CC
:1017C0002CF06A2D0E94A52D892F05C087FF03C02C
:1017D00090910B01890F082E000C990BC816D906A1
:1017E00091F48091FC028E9DA0018F9D500D1124DB
:1017F00055954795559547959E016091FB028091BF
:10180000FA020E944D09B00EF1E0EF1AF108A1F6BC
:101810001F5FB8CF0E94CC098091DD01013031F407
:10182000811102C080910B01815007C090E00196A8
:1018300060910B0170E00E94C72D8093DD01DF9164
:10184000CF911F910F91FF90EF90DF90CF90BF90BD
:10185000AF900895CF938091090190910A01891763
:1018600070F4E82FF0E09F01220F331FE20FF31F07
:10187000E250FD4F1182108212828F5FF0CFC0E0E4
:1018800060910B01C617C0F5EC2FF0E070E0CF01BE
:101890000E94C72D20910901820F2091DC01022EA8
:1018A000000C330B90E0E217F307CCF02091060117
:1018B000022E000C330B2E173F078CF09C01220FD9
:1018C000331F820F931F9C0122503D4F4091FC0219
:1018D0006091FB028091FA020E944D090BC0FC014D
:1018E000EE0FFF1F8E0F9F1FFC01E250FD4F118274
:1018F00010821282CF5FC4CF0E94CC0920910501D3
:101900008091DC01820F8093DC0190910601920F9F
:101910009093060119165CF4082E000C990B409167
:101920000B0150E041505109841795071CF0219597
:1019300020930501CF9108958F929F92AF92BF920D
:10194000CF92DF92EF92FF920F931F93CF93DF938B
:101950008C01FC014481C42FD0E09E01DE010E9475
:101960000B2E9B01AC010E94212E6B017C01E0E259
:10197000F0E0EC1BFD0BA5E5B0E09B01AC010E9483
:10198000212E4B015C019F01DF010E94032E9B0170
:10199000AC010E942C2E9B01AC012C0D3D1D4E1D57
:1019A0005F1DC501B4010E94DB2DC22FD22F2A3248
:1019B00028F4F3E02F9F900111240DC025E530E0BD
:1019C0002C1B3109C901880F991F280F391F37FFB8
:1019D00002C02F5F3F4F35952795C22FC095F12C40
:1019E00085E5E82EED1A80910B01F816C8F4F1FC9C
:1019F00002C08E2D01C08D2F909109012F2D30E056
:101A0000290F311DA901440F551F240F351F2250E6
:101A10003D4F4C2F6091FB020E944D09F394E3CFA0
:101A20000E94CC09F8018481811102C091E003C0B9
:101A3000803219F49FEF9093040190910401890F73
:101A4000F8018483DF91CF911F910F91FF90EF9068
:101A5000DF90CF90BF90AF909F908F9008950F939D
:101A60001F93CF93DF93EC0100E010E080910B0116
:101A7000282F30E00217130724F5909109019801EF
:101A8000290F311DA901440F551F240F351F225066
:101A90003D4F869590E04C81081719071CF44423AC
:101AA00031F002C0411103C04091FC0201C040E08E
:101AB0006091FB028091FA020E944D090F5F1F4F57
:101AC000D5CF0E94CC098C8190E001968170992736
:101AD0008C83DF91CF911F910F9108958F929F92E8
:101AE000AF92BF92CF92DF92EF92FF920F931F932C
:101AF000CF93DF93FC01B280948081E0848300E087
:101B000015E05BE4A52E88248394EE24EA94F12C5E
:101B10007BE4C72ED12C80910B01081708F08FC0F1
:101B2000C02FD0E01C9FF0011D9FF00D1124E25248
:101B3000FE4F911003C01382128267C023812223BB
:101B400089F1215023833481332319F09A2D921B7C
:101B500001C0922F8091FC021C9FF0011D9FF00D8F
:101B60001124E252FE4F899FC0011124B6010E9448
:101B7000B32D6283211104C0332311F01482A38298
:101B800022E02B1508F441C01C9FF0011D9FF00DB1
:101B90001124E252FE4F8091FA0280838091FB0271
:101BA000818333C00E94802E8230914074F582E0A0
:101BB0008B1530F40E94802EB7010E94C72D02C001
:101BC0008091FA021C9FF0011D9FF00D1124E2523A
:101BD000FE4F808322E02B1558F40E94802E209126
:101BE000FB022695622F70E00E94C72D820F02C073
:101BF0008091FB021C9FF0011D9FF00D1124E25209
:101C0000FE4F81831282A3828482809109019E010A
:101C1000280F311DC901880F991F280F391F225025
:101C20003D4F1C9FF0011D9FF00D1124E252FE4F0D
:101C30004281618180810E944D090F5F6CCFDF91ED
:101C4000CF911F910F91FF90EF90DF90CF90BF90B9
:101C5000AF909F908F900C94CC09E9EFF2E08081D7
:101C60008E7F808360817181828193810E9472095D
:101C7000109204022FEF80E792E0215080409040C4
:101C8000E1F700C000000C94CC096091F902669560
:101C900070E04BE050E08CE091E00E94902E892BA8
:101CA00019F481E0809304020E9441209093FD0189
:101CB0008093FC0108959091F90290FF35C09170D6
:101CC000811102C0926006C08B3210F0946502C090
:101CD000880F982B9093F902662351F06091F902D6
:101CE0007091FA028091FB029091FC020E947209AD
:101CF0006091F902669570E04BE050E08CE091E075
:101D00000E94902E892B19F01092040202C00E94AA
:101D1000450E81E08093FF014091FC026091FB023F
:101D20008091FA020C94700B0895682F9091F9023B
:101D3000969581E0890F8B3208F081E00C945B0E60
:101D400081E00C94950E682F9091F90296958FEF93
:101D5000890F09F48AE20C945B0E81E00C94A30EC7
:101D600061E00C945B0EE9EFF2E08081816080839A
:101D700086950C94B00E8091F90280FD0C942D0E86
:101D80000C94B30E60E00C945B0E80910202811102
:101D90002EC00E94481E811104C00E94F21E0E94A3
:101DA00084090E946E096093F9027093FA0280938D
:101DB000FB029093FC026E7F61F40E9484090E94F2
:101DC0006E096093F9027093FA028093FB0290937C
:101DD000FC020E945B09109204028091F90280FFCC
:101DE00003C086950E94C20E81E08093020208958E
:101DF0000F931F93CF93DF9380910402882309F4FC
:101E00009CC080910302E091F902E695E81BE09303
:101E1000FE01823049F4F0E0E95CFA4FE491CE2F04
:101E2000D0E005E21AE059C0863049F4F0E0EC5CFD
:101E3000FA4FE491CE2FD0E009E31AE04EC089308A
:101E400051F4E695F0E0EF5CFA4FE491CE2FD0E04C
:101E500003E71BE042C08F3051F4E695F0E0E25D0D
:101E6000FA4FE491CE2FD0E00EEA1BE036C0853168
:101E700049F4F0E0E55DFA4FE491CE2FD0E00AE2BC
:101E80001CE02BC08831D9F0833239F4E9E2F5E067
:101E9000C591D49109E41AE020C08432A9F08532BA
:101EA000C1F48E2F63E00E94992DE92FF0E0EA5DE6
:101EB000FA4FE491CE2FD0E00EE61DE00EC0C8E24E
:101EC000D0E00CE91CE009C0C4EFD1E00FE21DE056
:101ED00004C0C0EDD7E00CE419E08091FF01882335
:101EE00089F01092FF010E9441209E0120953095BB
:101EF000820F931F9093FD018093FC0110920102C9
:101F0000109200028091FC019091FD010E944D20F1
:101F10008C179D0790F0E091FC01F091FD01CE0F30
:101F2000DF1FD093FD01C093FC018CEF91E0F8011D
:101F3000DF91CF911F910F910994DF91CF911F9164
:101F40000F910895882311F0FA0101C0FB01099453
:101F5000CF93DF93C82FD62F0E9493098C1740F0A0
:101F60000E9493098D1720F4DF91CF910C94A00E5D
:101F70008C2FDF91CF910C94B00E0F931F93CF93C2
:101F8000FB01C281CC2309F463C08C010E94971D20
:101F90008272F801E25CFC45E431F10508F059C0B9
:101FA000EA5AFF4F0C94FD2D0E94BB0E06C04DEA6D
:101FB0005EE060EA7EE00E94A20FC0E04AC040EA14
:101FC0005EE06DEA7EE0F7CF41E35BE064E27BE058
:101FD000F2CF44E25BE061E37BE0EDCF4FE45BE016
:101FE00060E47BE0E8CF40E45BE06FE47BE0E3CFDC
:101FF0004DE65BE06EE57BE0DECF4EE55BE06DE657
:102000007BE0D9CF46EC59E06FEA79E0D4CF4FEAD4
:1020100059E066EC79E0CFCF81E017C065E082E05F
:1020200010C068E086E00DC06EE089E00AC064E19F
:102030008FE007C067E185E104C088E106C062E285
:1020400089E10E94A80FB9CF83E20E94B00EB5CFFC
:10205000C1E08C2FCF911F910F910895869A21B3E3
:102060002F7B31B330644FB7F894FC01CB01880F5C
:10207000991F680F791F6E0F7F1FE617F70789F00A
:10208000819198E031BB000000C087FF21BB880F21
:10209000000000C000C000C021BB00C09A9591F7AD
:1020A000ECCF4FBF8FE594E00197F1F700C000003F
:1020B0000895AF92BF92CF92DF92EF92FF920F936B
:1020C0001F93CF93DF937C015B01C42FD22FFC01C0
:1020D00082818823F9F0409307020E944120909367
:1020E00006028093050280E28C0F883008F06EC0F3
:1020F000C77081E001C0880FCA95EAF7DF91CF91E0
:102100001F910F91FF90EF90DF90CF90BF90AF9015
:102110000C94381580910702481335C08091050250
:10212000909106020E944D206C01B701C5010E94EA
:10213000811AC816D90638F510E21D0FCD17B9F06F
:1021400080E28C0F883040F4C77081E001C0880FB6
:10215000CA95EAF70E943F15183058F581E09D2F87
:10216000977001C0880F9A95EAF70E943815802F62
:102170000E942515183050F5D77081E001C0880FF6
:10218000DA95EAF70AC080E28C0F8830F8F4C7705D
:1021900081E001C0880FCA95EAF7DF91CF911F91C6
:1021A0000F91FF90EF90DF90CF90BF90AF900C9485
:1021B0003F15802FDF91CF911F910F91FF90EF90EE
:1021C000DF90CF90BF90AF900C942515DF91CF9109
:1021D0001F910F91FF90EF90DF90CF90BF90AF9045
:1021E00008950F939C01CB01233F4CE5340731F157
:1021F00088F4283DFCE53F07D9F0293D4CE534073C
:1022000079F1273D3C45A9F506E221EE41EE67ED67
:102210007CE52BC0253FFCE53F07E1F0A8F0263F19
:102220003C4539F507E225EE46EE66EF7CE51DC03C
:1022300007E225EE45EE68ED7CE517C006E221EEEB
:1022400040EE63EF7CE511C007E225EE44EE64EF5B
:102250007CE50BC006E221EE42EE65EF7CE505C0B1
:1022600008E221E045EE69ED7CE50E94591080E02E
:1022700008C0FC018281882319F01092070201C076
:1022800081E00F910895CF93DF93EC01FB018281F0
:10229000882309F41FC1C230FCE5DF0708F41BC125
:1022A000C6319CE5D90738F09E012A5F3C452930AC
:1022B000310508F010C10E94651E909315038093AC
:1022C0001403C031ECE5DE0709F4C3C008F041C0D7
:1022D000C8308CE5D80709F49AC0F0F4C430ECE5B6
:1022E000DE0709F487C068F4C2308CE5D80709F42A
:1022F00077C0C330DC4509F0E3C0809114038260ED
:1023000076C0C630ECE5DE0709F46EC008F07BC08D
:102310008091140388606BC0CC308CE5D80709F439
:1023200085C068F4CA30ECE5DE0709F474C008F033
:1023300079C00E94C81780911403806858C0CE30BD
:102340008CE5D80709F476C008F07FC080911403AB
:102350008BC0CB3FECE5DE0709F44FC018F5C33165
:102360008CE5D80709F47DC078F4C131ECE5DE07CF
:1023700009F473C0C231DC4509F0A2C00E94C8173D
:10238000809114038F7733C0C5318CE5D80709F4E9
:1023900072C008F486C0CA3FDC4509F091C0809144
:1023A00015033EC0CF3FFCE5DF0709F45FC058F4DA
:1023B000CD3F9CE5D90709F444C008F43FC08091A3
:1023C000150382602DC0C130FDE5DF0709F475C03B
:1023D00008F45DC0C230DD4509F072C080E06EC017
:1023E00080911403816003C0809114038061809305
:1023F000140366C08091140311C08091150382609C
:10240000809315035DC0809114038062F0CF8091AA
:1024100014038064ECCF8091140388608460E7CF5C
:102420008160EECF809114038E7FE1CF8091140301
:102430008D7FDDCF80911403877FD9CF80911503E5
:1024400018C0809115038D7FDBCF809114038F7EA0
:10245000CECF809114038F7DCACF809114038F7BE0
:10246000C6CF80911403877F8B7FC1CF80911503E6
:102470008D7F8E7FC5CF8091140382FB222720F9A8
:1024800091E0922790FB82F990FB83F9B0CF809185
:102490001503982F909591708E7F892B90FB81F971
:1024A000AFCF0E94C8178091140387FB222720F921
:1024B00091E0922790FB87F99ACF81E00E94F41E69
:1024C00080911403909115030E94761E0E94C817F4
:1024D00080E001C081E0DF91CF910895CF93DF9339
:1024E00086319C4541F5EB010E94971D982F8A810A
:1024F0002091170130911801882379F09A7A81E0B0
:1025000009F480E080930802911102C069E201C0E1
:1025100065E3C9010E948F1F0AC0809108028111E2
:1025200002C069E201C065E3C9010E949A1F0E94CE
:10253000E51D80E001C081E0DF91CF910895909387
:102540000E0280930D020895E0910D02F0910E02AB
:10255000309721F00190F081E02D099480E00895FA
:10256000E0910D02F0910E02309799F020912B012D
:10257000222359F02091140327FF07C0DC012C917E
:1025800011962C93119725E02C930280F381E02D76
:1025900009940895E0910D02F0910E02309739F000
:1025A00022E0DC012C930480F581E02D099408954C
:1025B00020910B0230910C022817390771F090938B
:1025C0000C0280930B02E0910D02F0910E02309705
:1025D00021F00680F781E02D0994089520910902E9
:1025E00030910A022817390771F090930A028093FC
:1025F0000902E0910D02F0910E02309721F0008463
:10260000F185E02D0994089585B7806885BF85B769
:10261000806885BF089508950C940B130C940C13D7
:102620000C940B130C940B130E9404130E941013B0
:102630000C940E1381E008950C941A130E94382014
:102640000E949E070E94F2200E94C50E0C94121355
:102650007F928F929F92AF92BF92CF92DF92EF9232
:10266000FF920F931F93CF93DF93CDB7DEB72A97D7
:102670000FB6F894DEBF0FBECDBF0E94F0070E94D8
:102680001C13811111C08FEF89838A831B820E94E2
:1026900041208160782F9D838C8349815A816B8191
:1026A0008D810E94DA134FC040E1A42E42E0B42E87
:1026B00000E010E0702E802F0E948B076C01F50166
:1026C000819091905F01882699268114910431F4BC
:1026D0000F5F1F4F0530110569F7D5CF8091B2020A
:1026E00081FD0E94940780E0EE24E394F12C940194
:1026F0002E213F21232B09F18E837F82CE20DF20E4
:1027000081E0CD2809F480E088870E944120816023
:10271000782F9A8789874E815F8168858A850E9494
:10272000DA13000F111FF801E05FFD4F80819181E6
:10273000E826F926F182E08206C08F5FEE0CFF1CCE
:102740008F30A9F6C5CF0E94F80E0E94C3230E94C5
:10275000A41290910F028917C9F00E94A4128093CD
:102760000F022A960FB6F894DEBF0FBECDBFDF91E1
:10277000CF911F910F91FF90EF90DF90CF90BF907E
:10278000AF909F908F907F900C9421052A960FB662
:10279000F894DEBF0FBECDBFDF91CF911F910F9197
:1027A000FF90EF90DF90CF90BF90AF909F908F9071
:1027B0007F900895CF93DF93CDB7DEB72B970FB6F9
:1027C000F894DEBF0FBECDBF4F83588769877A87E5
:1027D0008B87DE01119686E0FD0111928A95E9F75B
:1027E00085E0FE01379601900D928A95E1F74981C7
:1027F0005A816B817C818D819E810E94841A2B96E7
:102800000FB6F894DEBF0FBECDBFDF91CF91089514
:10281000FC01808191810E94581D0895CF938823E7
:1028200009F4A9C0C82F8238C1F40E94A41281FD06
:10283000A2C069E380911701909118010E948F1F37
:102840000E94E51D2FEF81EE94E0215080409040E2
:10285000E1F700C0000069E319C0833801F50E9468
:10286000A41280FD88C063E5809117019091180142
:102870000E948F1F0E94E51D2FEF81EE94E02150F2
:1028800080409040E1F700C0000063E580911701AF
:10289000909118010E949A1FCF910C94E51D8438E5
:1028A000C1F40E94A41282FD66C067E48091170102
:1028B000909118010E948F1F0E94E51D2FEF81EE5D
:1028C00094E0215080409040E1F700C0000067E4B0
:1028D000DDCF8CEF8C0F813AF8F48C2F0E943A26D2
:1028E000811149C06C2F80911701909118010E94AD
:1028F0000F1F882349F06C2F8091170190911801C8
:102900000E949A1F0E94E51D6C2F809117019091E3
:1029100018010E948F1FC0CF80E28C0F883048F4CE
:10292000C77081E001C0880FCA95EAF70E949A1D1E
:10293000B3CFEBE5EC0FE33040F4F0E0E653FE4FAD
:10294000808190E0CF910C94D812E8E5EC0FE7314C
:1029500050F4F0E0EE0FFF1FE456FE4F80819181AE
:10296000CF910C94EE12C03F30F08C2F0E94B82211
:10297000CF910C94A523CF910895882309F464C0C6
:10298000823879F40E94A41281FF5EC069E38091CD
:102990001701909118010E948F1F0E94E51D69E3A5
:1029A00010C08338B1F40E94A41280FF4DC063E5CB
:1029B00080911701909118010E948F1F0E94E51DC0
:1029C00063E580911701909118010E949A1F0C9461
:1029D000E51D843879F40E94A41282FF35C067E4B3
:1029E00080911701909118010E948F1F0E94E51D90
:1029F00067E4E7CF9CEF980F913A10F4682FE1CF8E
:102A000090E2980F983050F4877091E001C0990FD0
:102A10008A95EAF7892F0E94A01DD9CF9BE5980FD0
:102A2000933020F480E090E00C94D81298E5980F51
:102A3000973120F480E090E00C94EE12803F20F07B
:102A40000E9420230C94A5230895CF93C82F0E94A1
:102A50000E14C93349F42FEF87EE93E021508040E4
:102A60009040E1F700C000008C2FCF910C94BD1472
:102A7000882321F00E949A1D0C94E51D0895882357
:102A800021F00E94A01D0C94E51D0895CF92DF92C5
:102A9000EF92FF920F931F93CF93DF937C01062F4A
:102AA000C72FFC01158112951F70D281D1110E9490
:102AB000B71D0E94901D882399F0DD2389F08C2F8B
:102AC000807F803421F080E2800F883048F082E0FF
:102AD0000E942F1E0E94901D91E0D82ED92601C081
:102AE000D12CCC2EC2948FE0C8228C2D90E0FC011A
:102AF000E659FF4F0C94FD2D8C2F807FCF708823DB
:102B000011F0C295C07FDD2399F0CC2309F48DC16B
:102B100080E2800F883010F0011104C08C2F0E94D9
:102B20009A1D03C08C2F0E94AA1D0E94E51D7DC125
:102B3000802F0E94BD14CC2309F49CC180E2800F39
:102B4000883010F0011104C08C2F0E94A01D03C01A
:102B50008C2F0E94B01D0E94E51D8CC18C2F807FA0
:102B6000CF70803211F0C295C07F002319F0013080
:102B7000C9F022C0DD2371F0112341F0113031F48E
:102B80000E94CA1D8C2B0E94D21D74C10E94CA1DB6
:102B90008C2B1DC0112319F0113009F46BC10E9458
:102BA000DB1D25C0DD2321F0163008F063C10EC007
:102BB000153008F05FC11BC0DD2361F0112331F037
:102BC000F701858180FF31C18F7085838C2F0E9432
:102BD000381550C1112359F0093309F037C1FFEFFF
:102BE00027EE83E0F15020408040E1F72DC18C2F8B
:102BF0000E943F153FC18C2F86958695837019F0F2
:102C0000813061F037C1DD2321F0802F9C2F93703C
:102C100002C080E090E00E94D81234C1DD2321F090
:102C2000802F9C2F937002C080E090E00E94EE12F3
:102C300029C1802FDD2319F00E94B82202C00E9412
:102C400020230E94A5231EC18C2F837009F045C04C
:102C5000D11114C1402F429546954770440F440F3F
:102C6000602F6F70862F90E0A0E0B0E0042E04C0CB
:102C7000880F991FAA1FBB1F0A94D2F704FF10C028
:102C80000FE010E020E030E004C0000F111F221F11
:102C9000331F4A95D2F7009510952095309503C0C3
:102CA00000E010E09801C695C695C370BC01CD0147
:102CB000602B712B822B932BC23049F058F4C1301A
:102CC00019F00E94D51BDAC00E94C31BD7C00E9416
:102CD000E71BD4C00E94C11BD1C0DD2319F08C2F8B
:102CE000817001C08695882309F4C8C0402F4295A1
:102CF00046954770440F440F602F6F70862F90E009
:102D0000A0E0B0E0042E04C0880F991FAA1FBB1FCB
:102D10000A94D2F704FF10C00FE010E020E030E08A
:102D200004C0000F111F221F331F4A95D2F70095D0
:102D300010952095309503C000E010E09801C695ED
:102D4000C695C370BC01CD01602B712B822B932BD8
:102D5000C23049F058F4C13019F00E949A1C8EC05C
:102D60000E94881C8BC00E94AC1C88C00E94FB1B68
:102D700085C0CF70DD2339F08C2F0E94211C802F5D
:102D80000E9438157BC0802F0E943F158C2F0E9417
:102D9000421C74C0023F01F128F4003F41F0013FA2
:102DA000A1F03FC0033FF9F0043F39F13AC0DD2301
:102DB00041F0153008F05EC08C2F8F710E94671CA7
:102DC00059C0163008F056C0F7CFDD2339F08C2FEC
:102DD0008F710E94211C4EC0DD23C9F38C2F8F718F
:102DE0000E94421C47C0DD2329F08C2F8F710E9466
:102DF0000C1C40C00E94071C3DC0DD2349F0CF7170
:102E00008C2F0E94211C63E08C2F0E941A1E32C05E
:102E100081E00E942F1E123068F182E00E942F1E76
:102E200029C0DD2331F0112391F2802F0E940E146E
:102E300021C0112399F2093349F49FEFE7EEF3E043
:102E40009150E040F040E1F700C00000802F0E9468
:102E5000BD1410C04C2F4F70602FC7010E947D051C
:102E60000E94321B0FC04C2F4F70602FC7010E9471
:102E7000800508C088EF8C0D843020F40E94A412D5
:102E80000E942105DD20C9F00E948C1D80FD15C027
:102E9000F70112820E94861D0E94211CC7010E9418
:102EA0007E170E94861DDF91CF911F910F91FF9099
:102EB000EF90DF90CF900C94421CDF91CF911F9147
:102EC0000F91FF90EF90DF90CF9008950F931F9395
:102ED000CF93DF93EC01688179818A810E94631D21
:102EE0008C010E94BE1C0E94AF1BB801CE010E9443
:102EF0004615DF91CF911F910F910895CF93DF93E6
:102F0000EC01988189812B813C81232B31F08F3F0B
:102F100031F481E09F3F19F403C081E001C080E0FB
:102F200080FD19C0CE010E943A0581110CC00E949B
:102F3000901D882381F08A81882369F082E0DF91E7
:102F4000CF910C942F1ECE010E946617CE01DF9107
:102F5000CF910C940705DF91CF9108950E94B71D82
:102F60000E94C71D0E94E51D0E94D6240E94A52331
:102F700080E090E00E94D81280E090E00C94EE1285
:102F800080911701909118010E94A51F0C94AE1713
:102F90000E94A71D0C94C017E92FE295EF704E2FE9
:102FA00050E0FA013297EE30F105B0F4E658FF4FE9
:102FB0000C94FD2D803F91F018F4883E68F40EC00B
:102FC000843F51F40BC0883E48F0813F29F406C08D
:102FD00093FB882780F9089580E0089581E00895A3
:102FE0000E94581D0E94CC170895CF93DF9300D004
:102FF00000D01F92CDB7DEB70F900F900F900F90BB
:103000000F90DF91CF910895CF93DF9300D000D040
:1030100000D0CDB7DEB726960FB6F894DEBF0FBE50
:10302000CDBFDF91CF9108951F93CF93DF93C091D0
:103030001B0216E080911C02C81799F0D0E01C9F7B
:10304000F0011D9FF00D1124E35EFD4F4081518181
:1030500062817381848195810E9404182196C770D2
:10306000E9CFDF91CF911F91089540914D0250918A
:103070004E0260914F0270915002809151029091E6
:1030800052020C9404180F931F93CF93DF938091F7
:10309000520282958F7009F05DC080914F028823A3
:1030A00009F458C080911B0210911C0260914D02DE
:1030B00070914E02C0915002D091510291E06F3F49
:1030C00009F090E0292F06E0811709F443C020970A
:1030D00021F07F3F21F030E003C031E001C0322F0A
:1030E00090E030FD34C0089FF001099FF00D1124DD
:1030F000DF01A35EBD4F11963C911197371327C096
:103100003C91361324C012963C91129731111FC086
:1031100013964D915C9114974C1B5D0B483C5105E7
:10312000B0F4809152028F70806180935202EE5D04
:10313000FD4F80818F70806180838DE492E00E94DA
:103140007E17DF91CF911F910F910C941418019667
:103150008770BACFDF91CF911F910F9108959F9201
:10316000AF92BF92CF92DF92EF92FF920F931F9395
:10317000CF93DF93CDB7DEB761970FB6F894DEBF7C
:103180000FBECDBF8C0185E0F801DE011D960190D8
:103190000D928A95E1F7F80140815181E28090918A
:1031A0004D0260914E022091500230915102211542
:1031B000310531F06F3F31F481E09F3F19F403C0D6
:1031C00081E001C080E0F82FF1709F2E80FD46C1A4
:1031D000F801A380B4808DE4C82E82E0D82EF09050
:1031E0004F02F501E21BF30BFF2009F4DFC08091D1
:1031F0005202E83CF10508F09BC0282F207F09F01F
:1032000052C0561313C0491311C0FE2CE1100EC05A
:103210008F708061809352020E943518C6010E940F
:103220007E1780915202F801858358C1AB2831F096
:103230005F3F31F481E04F3F19F403C081E001C0EA
:1032400080E080FD03C081E08E2502C080E090E038
:10325000F82FF170FF2E80FF1CC080911B0220917F
:103260001C0236E0821709F417C190E0389FF00184
:10327000399FF00D1124E35EFD4F6181561306C0A6
:103280006081461303C06281E61203C00196877015
:10329000E9CFFE2CEE2009F421C180915202816019
:1032A000809352025AC0561306C0491304C0E1105D
:1032B00002C0F8019FC04D875E878D859E850E9464
:1032C000F017882379F1EE2069F120915202822FC4
:1032D00082958F7090E0029774F080914D029091EA
:1032E0004E0298878F831986BB86AA862C87CE01CB
:1032F00007960E947E1786E0F801ADE4B2E00190E7
:103300000D928A95E1F70E9443180E9435180DC06E
:10331000561729F14D875E878D859E850E94F0178F
:1033200081112CC0C8010E947E17FF24F394D6C0DF
:10333000282F207F69F77A2DB98AA88A6E2D89896E
:103340000E94F5178DE492E00E947E1786E0F60158
:1033500011928A95E9F70E943518F12CBFC04913E4
:10336000D9CFE110D7CFF8018583C8010E947E171D
:1033700086E0F60111928A95E9F7B0C0EE2091F24D
:1033800020915202822F82958F7090E002970CF468
:10339000B2CF80914D0290914E029A8389831B8215
:1033A000BD82AC822E83CE010196A3CFE83CF1050D
:1033B00008F047C0FE2CEE2009F4B4CF561330C0FD
:1033C00049132EC02091520220FD21C0822F8295E8
:1033D0008F70482F50E041155105C9F0F801258341
:1033E0004F30510541F08F5F982F9295907F822F3B
:1033F0008F70892B8583C8010E947E1786E0F801B3
:10340000ADE4B2E001900D928A95E1F742C086E00A
:10341000F801ADE4B2E001900D928A95E1F75EC04B
:103420004D875E878D859E850E94F017811163CF41
:1034300080915202816080935202C8010E947E17DF
:103440004DC07A2DB98AA88A6E2D89890E94F517F8
:1034500086E0F60111928A95E9F71BC0EE2009F487
:1034600061CF4D875E878D859E850E94F017F82E6F
:10347000882309F457CF86E0F801ADE4B2E001906B
:103480000D928A95E1F78DE492E00E9408140E9463
:1034900043180E94351822C04D875E878D859E8512
:1034A0000E94581D292F22952F70223028F49F70DA
:1034B00039F0811105C00BC0243028F49F7049F405
:1034C000805E883020F0C8010E947E179F2CF92C66
:1034D00005C0F8019581907F99F7F9CF8F2D6196FE
:1034E0000FB6F894DEBF0FBECDBFDF91CF911F9115
:1034F0000F91FF90EF90DF90CF90BF90AF909F9093
:10350000089588EC90E008951F93CF93DF93CDB793
:10351000DEB72C970FB6F894DEBF0FBECDBF4F833A
:10352000588769877A878B879C87CE0107960E9488
:10353000AF188823D1F09F8188852A853B85232B6E
:1035400031F08F3F31F481E09F3F19F403C081E0F7
:1035500001C080E080FD47C04F81588569857A852C
:103560008B859C850E9404183EC086E0FE0137963C
:10357000DE01119601900D928A95E1F7FF81E885B1
:103580006A857B856115710531F0EF3F31F481E08B
:10359000FF3F19F403C081E001C080E080FD23C03B
:1035A00020911C0230E0C901019687709927409153
:1035B0001B0250E084179507F1F1F983EA837D83BC
:1035C0006C8396E0929FD001939FB00D1124A35E6F
:1035D000BD4FFE01319601900D929A95E1F78093CF
:1035E0001C020E94141816E080911B0290911C028C
:1035F000891771F1189FC0011124835E9D4F0E94AD
:10360000AF18882329F1E0911B021E9FF0011124BD
:10361000E35EFD4F40815181628173818481958198
:103620000E94041880911B0290E0019687709927F0
:1036300080931B02D9CF0E94C81710921C021092CF
:103640001B02EDE4F2E086E0DF011D928A95E9F7C6
:103650002C960FB6F894DEBF0FBECDBFDF91CF9191
:103660001F910895EF92FF920F931F93CF93DF93D3
:103670008C01892B09F46CC0F12CEE24E394E80151
:103680002196F8018491843740F4843008F051C0C9
:10369000813081F0823019F15BC0853709F444C074
:1036A000A8F19CE7980F903708F052C08F770E94DE
:1036B000BD1441C00E5F1F4FFE01849190E2980F30
:1036C000983050F48770FE2D01C0FF0F8A95EAF7FD
:1036D0008F2F0E94BA1D14C00E940E142DC00E5FC1
:1036E0001F4FFE01849190E2980F983060F487702C
:1036F000FE2D01C0FF0F8A95EAF78F2F0E94C01D93
:103700000E94E51D19C00E94BD1416C00E5F1F4F18
:10371000FE01C491CC2381F08FE99FE00197F1F77E
:1037200000C00000C150F6CF0E5F1F4FFE01F490A5
:1037300003C00E940E148E018F2D882309F49FCFA1
:10374000EFE9FFE03197F1F700C000008150F5CFBD
:10375000DF91CF911F910F91FF90EF900895089501
:1037600008950C94B01B0C94B11B0E94B31B609382
:10377000890270938A0280938B0290938C020C943E
:10378000AE170C94B51B0F931F93009189021091F3
:103790008A0220918B0230918C02602B712B822B3C
:1037A000932B1F910F910C94B51B0F931F930091B6
:1037B000890210918A0220918B0230918C02602341
:1037C0007123822393231F910F910C94B51B0F93A8
:1037D0001F930091890210918A0220918B023091EF
:1037E0008C0260277127822793271F910F910C94D9
:1037F000B51B0C94B01B0E94F91B6093850270935B
:10380000860280938702909388020C94AE1760E042
:1038100070E0CB010C94FB1B0F931F9341E050E031
:1038200060E070E08A019B0104C0000F111F221F9D
:10383000331F8A95D2F7C901B8011F910F910C94DB
:10384000FB1B0F931F9341E050E060E070E004C069
:10385000440F551F661F771F8A95D2F78091850206
:1038600090918602A0918702B09188028A019B0103
:10387000082B192B2A2B3B2BC901B8011F910F9143
:103880000C94FB1B0F931F9341E050E060E070E04D
:1038900004C0440F551F661F771F8A95D2F74095C5
:1038A0005095609570958091850290918602A091C7
:1038B0008702B09188028A019B01082319232A23D9
:1038C0003B23C901B8011F910F910C94FB1B0F936F
:1038D0001F9341E050E060E070E004C0440F551FCA
:1038E000661F771F8A95D2F7809185029091860294
:1038F000A0918702B09188028A019B0108271927AD
:103900002A273B27C901B8011F910F910C94FB1B7B
:103910000F931F93009185021091860220918702D8
:1039200030918802602B712B822B932B1F910F916A
:103930000C94FB1B0F931F9300918502109186023C
:103940002091870230918802602371238223932380
:103950001F910F910C94FB1B0F931F9300918502F5
:10396000109186022091870230918802602771278A
:10397000822793271F910F910C94FB1B08952FE032
:10398000929F800D1124E82FE695E695E6958770C5
:1039900051E001C0550F8A95EAF785E0E89FF001F4
:1039A0001124ED5AFD4F20E030E070E04081CB0162
:1039B000022E02C0969587950A94E2F78170819550
:1039C00084278523842781932F5F3F4F253031053E
:1039D00069F708952FE0929F800D1124682F669556
:1039E00066956695982F977085E0689FB0011124C1
:1039F00040E050E080E0FB01E40FF51FED5AFD4F81
:103A0000208130E0092E02C0369527950A94E2F70E
:103A100021703327042E01C0220F0A94EAF7822B6B
:103A20004F5F5F4F4530510531F70895BF92CF92F8
:103A3000DF92EF92FF920F931F93CF93DF938C014E
:103A4000C0908502D0908602E0908702F0908802B4
:103A50008091890290918A02A0918B02B0918C0290
:103A6000C82AD92AEA2AFB2ACFE1D0E0D701C60129
:103A70000C2E04C0B695A795979587950A94D2F712
:103A800080FD04C0219790F7B12C07C0BC2EB8016F
:103A90008C2F0E949C050197A9F38B2DDF91CF916C
:103AA0001F910F91FF90EF90DF90CF90BF900895FE
:103AB000CF93DF93EC010E94161DBE010E949C056E
:103AC000DF91CF9108951F93CF93DF93EB019091F6
:103AD0001A02992321F0CB010E94581D13C088239C
:103AE00049F0CB010E94161D182F682FCE010E94AD
:103AF000BF1C04C0CB010E94EA1C182FBE01812FFD
:103B00000E949C05DF91CF911F91089580918D02B5
:103B1000859585958595089580918D028770089586
:103B200090918D02977081E009F480E00895809172
:103B3000B10208959091B102892B8093B10208954A
:103B400080959091B10289238093B10208951092DB
:103B5000B10208959091B002892B8093B00208952C
:103B600080959091B00289238093B00208951092BD
:103B7000B00208959091AF02892B8093AF0208950F
:103B800080959091AF0289238093AF02089510929F
:103B9000AF02089580918E02089508950C94CD1D72
:103BA0000C94CE1D90918E02981721F080938E0276
:103BB0000C94D01D089580918E02882329F01092D4
:103BC0008E0280E00C94D01D0895E0911701F091D1
:103BD00018018091B1028083E0911701F0911801E2
:103BE00090818091B002892B8083E0911701F09140
:103BF000180190818091AF02892B808380918E0281
:103C0000882381F0E0911701F09118019081892BB0
:103C1000808380911701909118010E94F91E8111F3
:103C20000E94DB1D80911701909118010C94B01235
:103C30000C94CD1D98E0899F90011124262B209390
:103C40008D020E94211C80918D0285958595859518
:103C50000C94181E10928D0280E00C94181E209176
:103C60008D028095822380938D02982F977079F42E
:103C700030E0482F082E000C550B2417350739F07B
:103C80008595859585950E94421C0C942A1E089561
:103C900080E090E00E94AB2E21E08C3E9E4F09F028
:103CA00020E0822F089582E090E00C949D2E682FF2
:103CB00082E090E00C94B12E83E090E00C949D2E75
:103CC000682F83E090E00C94B12ECF9384E090E0D5
:103CD0000E949D2EC82F81E290E00E949D2E2C2FE5
:103CE00030E0A901582BCA01CF910895CF93C92F75
:103CF000682F84E090E00E94B12E6C2F81E290E06A
:103D0000CF910C94B12EAB01BC018FE090E00C94EC
:103D1000C32EAB01BC0183E190E00C94C32E60E0A4
:103D200070E0CB010C94891E60E070E0CB010E9432
:103D3000831E0C948F1E6CEE7EEF80E090E00E945C
:103D4000CF2E60E082E090E00E94B12E60E083E040
:103D500090E00E94B12E1092890210928A02109275
:103D60008B0210928C0260E084E090E00E94B12E01
:103D700060E081E290E00E94B12E60E085E090E09A
:103D80000E94B12E60E086E090E00E94B12E6FEFBD
:103D900087E090E00E94B12E40E050E0BA0188E058
:103DA00090E00E94C32E60E08DE090E00E94B12E72
:103DB00040E050E0BA0188E190E00E94C32E60E04C
:103DC00087E190E00E94B12E40E050E0BA018CE122
:103DD00090E00E94C32E60E080E290E00E94B12E4D
:103DE0000C94941E0C949B1E682F8EE090E00C9413
:103DF000B12EFC01329680912B01882331F0809105
:103E0000140387FF02C09EE101C096E080E091505C
:103E100028F021912223D9F38F5FF9CF08956623EB
:103E200051F120912B012223E9F02091140327FF67
:103E300019C0462F4695469546954E31E0F4677079
:103E400021E030E002C0220F331F6A95E2F7FC0147
:103E5000E40FF11D828190E02823392381E0232B98
:103E600069F409C0FC01329608962191621729F085
:103E7000E817F907D1F780E0089581E008959C01E3
:103E8000FC0132969FEF80E04191461789F09F3FF9
:103E900019F4411101C0982F8F5F8630A9F79F3F19
:103EA00039F0F901E90FF11D97FDFA956283089544
:103EB00008959C012A5F3F4FFC014281461301C0D7
:103EC0001282019682179307B9F70895262F269537
:103ED000269526952E3168F4FC01E20FF11D6770DE
:103EE00021E030E001C0220F6A95EAF78281282B99
:103EF00022830895262F2695269526952E3170F437
:103F0000FC01E20FF11D677021E030E001C0220FDB
:103F10006A95EAF7209582812823228308952091CB
:103F20002B01222329F02091140327FD0C94661FF6
:103F30000C943F1F20912B01222329F02091140380
:103F400027FD0C947A1F0C94591F20912B01FC0122
:103F50003296222331F08091140387FF02C08EE154
:103F600001C086E0DF011D928A95E9F70895089562
:103F70000C94B71F0C94B71FCF930E94BA1F0E94D6
:103F8000F0070E94B81FC0E08C2F0E948B07892B7E
:103F900029F4CF5FC530C1F780E001C081E0CF9147
:103FA00008950C94B71F0C94D11F0E94D31F8091C9
:103FB0001A03843049F11092B30220E488E190E0C2
:103FC0000FB6F894A895809360000FBE2093600010
:103FD00080E00E9421050E94D31F83B7817F846007
:103FE00083BF83B7816083BF7894889583B78E7FC2
:103FF00083BF0FB6F894A895809160008861809384
:104000006000109260000FBE08950C94B71F0E94CC
:10401000C8170E94A4120E9421050C9405201F922B
:104020000F920FB60F9211248F939F93AF93BF936C
:104030008091B302811113C08091100390911103FC
:10404000A0911203B09113034196A11DB11D80935D
:10405000100390931103A0931203B0931303BF9125
:10406000AF919F918F910F900FBE0F901F90189559
:1040700082E084BD93E095BD9AEF97BD80936E007A
:1040800008952FB7F8948091100390911103A09197
:104090001203B09113032FBF08959C014FB7F894FA
:1040A0008091100390911103A0911203B09113031A
:1040B0004FBF821B930B089578941F920F920FB6F7
:1040C0000F9211248F939F93AF93BF93809110030E
:1040D00090911103A0911203B09113030196A11DB9
:1040E000B11D8093100390931103A0931203B0931A
:1040F0001303BF91AF919F918F910F900FBE0F90BF
:104100001F90189581E08093E00080E28093D800B2
:104110001092C9008FE19EE40197F1F700C0000002
:1041200087E090EBDC018093230390932403A0931A
:104130002503B09326039CE088E10FB6F894A89578
:10414000809360000FBE90936000FFCFAF92BF924C
:10415000CF92DF92EF92FF920F931F93CF93C0E025
:10416000CC24C394D12CE82EF12C8C2F0E948B07E9
:104170005C0100E010E0C601002E02C0880F991F0C
:104180000A94E2F78A219B21892B31F40F5F1F4F9C
:104190000F30110581F70AC0602F7C2F80E00E944C
:1041A0008105E816F90691F781E004C0CF5FC530BC
:1041B000E1F680E0CF911F910F91FF90EF90DF909B
:1041C000CF90BF90AF900895CF93C82F8CE20E94FC
:1041D000A620882321F08C2FCF910C94A62080E07C
:1041E000CF910895CF930E94481E811102C00E9472
:1041F000F21EC5E6C15049F00E94F0078FE39CE92A
:104200000197F1F700C00000F5CF89E20E94E42099
:1042100081112AC18AE20E94E42081110E94F21ECB
:1042200085E00E94E42081110E9482200E94531E9A
:104230008093B20287E00E94E4208823A9F18BE1F9
:104240000E94E420882351F08091B20281FB222752
:1042500020F991E0922790FB81F90EC08EE00E9438
:10426000E420882361F08091B20282FB222720F9AA
:1042700091E0922790FB82F98093B20215C080E111
:104280000E94E4209091B202882341F093FB222700
:1042900020F981E0822780FB93F904C0892F809563
:1042A00080FB90F99093B2028091B2020E94571E57
:1042B0000E94651E909315038093140380EE0E9464
:1042C000E420882341F080911403982F909590FB6F
:1042D00080F98093140389E30E94E420882359F035
:1042E0008091140381FB222720F991E0922790FB13
:1042F00081F98093140382EE0E94E420882359F010
:104300008091140382FB222720F991E0922790FBF1
:1043100082F98093140386EE0E94E420882359F0EA
:104320008091140383FB222720F991E0922790FBD0
:1043300083F98093140383EE0E94E420882359F0CC
:104340008091140384FB222720F991E0922790FBAF
:1043500084F98093140385E30E94E420882359F0B4
:104360008091140385FB222720F991E0922790FB8E
:1043700085F98093140381E30E94E420882359F097
:104380008091140386FB222720F991E0922790FB6D
:1043900086F98093140381E10E94E420882359F078
:1043A0008091140387FB222720F991E0922790FB4C
:1043B00087F98093140380911403909115030E9450
:1043C000761E87E20E94E420C82F8EE10E94E4203E
:1043D0008111C2608FE10E94E4208111C46080E2FB
:1043E0000E94E4208111C86081E20E94E4208111D2
:1043F000C06182E20E94E4208111C06283E20E94D7
:10440000E4208111C06484E20E94E420882311F03A
:10441000C06802C0CC2329F08C2F0E94601E6C2F34
:1044200003C00E945C1E682F70E080E090E00E9454
:10443000C11B6091850270918602809187029091E4
:1044400088020E94F91B8FE00E94E420882319F063
:1044500081E00E94F41E85E10E94E420882321F07F
:1044600080E0CF910C94F41ECF9108958091BA0210
:1044700080FF0BC060911E0185E0689FB001112490
:1044800075956795759567952BC081FF09C06091FB
:104490001E0185E0689FB00111247595679520C0C5
:1044A00082FF07C060911E0185E0689FB001112462
:1044B00017C09091B9029923D1F060911D01961710
:1044C00088F720911E0185E0289F90011124929F7A
:1044D000A001939F500D112470E0CA010E94C72DC6
:1044E0006038710540F46115710519F406C065E086
:1044F00070E0862F08958FE7089581E008958091F8
:10450000BA0280FF08C060911A0170E07595679546
:104510007595679521C081FF06C060911A0170E012
:104520007595679519C082FF04C060911A0170E00B
:1045300010C09091B802992399F0609119019617D3
:10454000A0F780911A01899FC001112470E00E9498
:10455000C72D6038710540F46115710519F406C066
:1045600061E070E0862F08958FE7089581E0089557
:10457000803F21F40E943622819504C0813F29F4B6
:104580000E9436228093BE020895823F21F40E9449
:104590003622819504C0833F29F40E9436228093FD
:1045A000BD020895893F19F40E947F2205C08A3F09
:1045B00031F40E947F2281958093BF0208958B3F42
:1045C00021F40E947F22819504C08C3F29F40E942F
:1045D0007F228093C0020895843F21F48091BC0221
:1045E000816017C0853F21F48091BC02826011C0B8
:1045F000863F21F48091BC0284600BC0873F21F488
:104600008091BC02886005C0883F31F48091BC0273
:1046100080618093BC0208958D3F21F48091BA029D
:1046200081600BC08E3F21F48091BA02826005C088
:104630008F3F29F48091BA0284608093BA02089572
:10464000803F39F48091BE0287FF6AC01092BE029B
:1046500067C0813F29F48091BE021816BCF360C088
:104660009091BD02823F29F497FF5AC01092BD027B
:1046700057C0833F19F41916CCF352C09091BF0272
:10468000893F31F419160CF04BC01092BF0248C09C
:104690008A3F19F497FF44C0F8CF8B3F39F48091DB
:1046A000C00287FF3DC01092C0023AC08C3F29F47F
:1046B0008091C0021816BCF333C0843F21F480916E
:1046C000BC028E7F17C0853F21F48091BC028D7F94
:1046D00011C0863F21F48091BC028B7F0BC0873FC5
:1046E00021F48091BC02877F05C0883F31F480911E
:1046F000BC028F7E8093BC0213C08D3F21F4809159
:10470000BA028E7F0BC08E3F21F48091BA028D7F5A
:1047100005C08F3F29F48091BA028B7F8093BA0243
:104720008091BD02811106C08091BE02811102C03C
:104730001092B9028091BF02811106C08091C0021F
:10474000811102C01092B80208950E944120209168
:10475000BD02211104C02091BE02222321F09093BA
:10476000B7028093B6022091BF02211104C02091AC
:10477000C002222321F09093B5028093B4028BEB08
:1047800092E00C94CA12EF92FF920F931F93CF9373
:10479000DF9300D000D000D0CDB7DEB786E0EBEBE2
:1047A000F2E0DE01119601900D928A95E1F7E0901A
:1047B000BD02F090BE020091BF021091C0021092A3
:1047C000BD021092BE021092BF021092C002E11010
:1047D00003C0FF2009F45DC08091B6029091B7023A
:1047E0000E944D20AC019091B902992339F020919B
:1047F0001F0130E02417350758F04BC020912001ED
:104800008AE0289F900111242417350718F041C031
:104810009F3F19F09F5F9093B902EE2061F00E94D4
:1048200036221E1414F09FEF01C091E0989F902D46
:1048300011249093BD02FF2061F00E9436221F14C4
:1048400014F09FEF01C091E0989F902D1124909358
:10485000BE023091BD023323E1F02091BE0222233B
:10486000C1F045EB3403C0011124992319F0909352
:10487000BD0203C081E08093BD0235EB2303C0017C
:104880001124992319F09093BE0203C081E0809314
:10489000BE02011103C0112309F45DC08091B4026E
:1048A0009091B5020E944D20AC019091B8029923DD
:1048B00039F020911B0130E02417350758F04BC028
:1048C00020911C018AE0289F9001112424173507AC
:1048D00018F041C09F3F19F09F5F9093B8020023EA
:1048E00061F00E947F22101614F09FEF01C091E04A
:1048F000989F902D11249093BF02112361F00E9484
:104900007F22111614F09FEF01C091E0989F902D27
:1049100011249093C0023091BF023323E1F0209123
:10492000C0022223C1F045EB3403C00111249923B6
:1049300019F09093BF0203C081E08093BF0235EB72
:104940002303C0011124992319F09093C00203C0DE
:1049500081E08093C0028091BD0281110BC08091E3
:10496000BE02811107C08091BF02811103C08091F6
:10497000C00281110E94A523EB82FC820D831E835D
:1049800086E0FE013196ABEBB2E001900D928A9584
:10499000E1F726960FB6F894DEBF0FBECDBFDF91CC
:1049A000CF911F910F91FF90EF900895EBEBF2E004
:1049B00086E0DF011D928A95E9F71092B902109204
:1049C000B8021092BA020895833081F128F4813040
:1049D00059F08230D1F00895853009F449C0B8F11A
:1049E000863009F456C0089580912001262F30E0CA
:1049F000280F311D2F3F310524F4680F60932001EB
:104A000008958FEF80932001089580911F01262F34
:104A100030E0280F311D2F3F310524F4680F6093DB
:104A20001F0108958FEF80931F01089580911E014B
:104A3000262F30E0280F311D2F3F310524F4680F59
:104A400060931E0108958FEF80931E010895809159
:104A50001D01262F30E0280F311D2F3F310524F492
:104A6000680F60931D0108958FEF80931D010895D5
:104A700080911A01262F30E0280F311D2F3F31057C
:104A800024F4680F60931A0108958FEF80931A0140
:104A9000089580911901262F30E0280F311D2F3FF6
:104AA000310524F4680F6093190108958FEF809306
:104AB00019010895833011F128F4813049F08230D2
:104AC00091F00895853081F120F18630C1F108958B
:104AD00080912001681720F4861B8093200108959F
:104AE00010922001089580911F01681720F4861B01
:104AF00080931F01089510921F01089580911E0157
:104B0000681720F4861B80931E01089510921E01E1
:104B1000089580911D01681720F4861B80931D0164
:104B2000089510921D01089580911A01681720F4CC
:104B3000861B80931A01089510921A01089580919E
:104B40001901681720F4861B8093190108951092AB
:104B5000190108950F931F9341E050E060E070E069
:104B60008A019B0104C0000F111F221F331F8A9569
:104B7000D2F7C901B8010E94C11B1F910F910C947B
:104B8000C817482F50E0FA013597EF33F10508F0C8
:104B900060C0E857FF4F0C94FD2D0E94F21E55C0D7
:104BA0008091B202817F8E7F8093B20281E08093F8
:104BB000C20208950E942B0548C08091B202982F2E
:104BC0009095917090FB80F98093B20291113DC055
:104BD000897F877F10C08091B20281FB222720F954
:104BE00091E0922790FB81F98093B202992369F1B9
:104BF0008091B20281608093B20227C08091B2029C
:104C000082FB222720F991E0922790FB82F9ECCFDA
:104C10008091B20283FB222720F991E0922790FB3A
:104C200083F9E2CF0E94C8178091140387FB2227E3
:104C300020F991E0922790FB87F98093140305C037
:104C4000895301C08D510E94AA2581E0089580E01A
:104C5000FACF80E0089580E008950C942B268E51C1
:104C60008A3030F4E82FF0E0E353FE4F808108955E
:104C700080E00895CF93C82F8091C202813051F017
:104C800018F0823099F17DC00E94971D823209F0A0
:104C90007AC004C00E94971D823261F48C2F0E945A
:104CA0002D26811104C08C2F0E94C1251DC081E0DA
:104CB00090E01AC08C2F0E942B26811114C0C431A1
:104CC00079F048F4CB3079F0C03109F060C082E06F
:104CD0008093C20208C0C93219F0C83321F057C00E
:104CE0001092C20254C081E0817053C0C93289F170
:104CF00018F5C43171F1B0F4C73009F046C08EE147
:104D00008093200182E380931F018AE080931E013B
:104D100084E180931D0188E080931A0188E28093EA
:104D2000190133C082EE8C0F863078F58C2F0E94EB
:104D30002F268093C10229C0CE34E9F020F4CB3471
:104D400021F56AE013C0C13579F0C235F1F461E0B4
:104D50000DC08091C102882319F01092C10215C0C4
:104D600081E08093C20215C061E006C08091C1025B
:104D70000E94E4240AC06AE08091C1020E945A2580
:104D800004C01092C20280E004C081E002C080E052
:104D9000ABCFCF9108958091E3020895CF93DF9335
:104DA00000D01F92CDB7DEB790911A03943019F559
:104DB00089837B836A8382E08093E9008FEF9091FF
:104DC000E800815095FD06C095ED9A95F1F7000039
:104DD0008111F5CF8091E80085FF0DC040E050E0E3
:104DE00063E070E0CE0101960E94FB288091E8000C
:104DF0008E778093E8000F900F900F90DF91CF9106
:104E00000895BC0184E00C94CE26BC0183E00C9490
:104E1000CE2622E02093E9002FEF3091E8002150C8
:104E200035FD06C035ED3A95F1F700002111F5CFBB
:104E30002091E80025FF0BC040E050E066E070E004
:104E40000E94FB288091E8008E778093E800089507
:104E5000CF93DF9320912B01222339F0209114036B
:104E600027FF03C060E222E002C068E021E0209357
:104E7000E9002FEF3091E800215035FD06C035EDF7
:104E80003A95F1F700002111F5CF2091E80025FFB8
:104E90001DC0EC0180912B01811105C040E050E064
:104EA00068E070E003C070E040E050E0CE010E9496
:104EB000FB288091E8008E778093E80080E2FE0175
:104EC000A3ECB2E001900D928A95E1F7DF91CF91CA
:104ED000089580911903811109C00E948C2A0E94B3
:104EE000E92A8091E20084608093E20008951092A4
:104EF00019030895089508950C94072042E061EC89
:104F000081E00E94052A42E261EC82E00C94052ACD
:104F100080911C03833009F460C030F4813071F05B
:104F2000823009F499C008958A3009F485C08B3025
:104F300009F46BC0893009F0A7C020C080911B0321
:104F4000813A09F0A1C08091E800877F8093E80052
:104F500080911F0390912003892B21F460E283EC60
:104F600092E003C060E080E090E070E00E9446299B
:104F70008091E8008B778093E800089580911B036F
:104F8000813209F081C080911F0390912003029724
:104F900008F07AC08091E800877F8093E8008091D4
:104FA000E80082FD05C080911A038111F8CF6CC022
:104FB0002091F3008091F20090E0922B029729F467
:104FC0008091F1008B7F813021F48091F1008093FA
:104FD000E3028091E8008B7753C080911B03813AF4
:104FE00009F052C080911F0390912003892B09F092
:104FF0004BC08091E800877F8093E8008091E800B3
:1050000080FFFCCF80912B0136C080911B03813241
:10501000D9F580911F0390912003892BA9F58091E8
:10502000E800877F8093E8000E943A2A80911D0360
:1050300080932B010C94C81780911B03813221F5BA
:105040008091E800877F8093E8000E943A2A80914F
:105050001E038093E402089580911B03813AA1F41A
:105060008091E800877F8093E8008091E80080FFCE
:10507000FCCF8091E4028093F1008091E8008E776C
:105080008093E8000C943A2A089584B7877F84BF00
:105090000FB6F894A89580916000886180936000B5
:1050A000109260000FBE90E080E80FB6F8948093F5
:1050B0006100909361000FBE0E9414130E948C2A1D
:1050C0000E94E92A8091E20084608093E200789453
:1050D0000E947E2D0E941E1381E291E00E949F1289
:1050E00080911A03853069F40E94D51F80911803BE
:1050F0008823B1F30E94BC1F882391F30E94E52806
:10510000EFCF0E942813ECCF0C948628292F332749
:1051100023303105C9F060F42130310581F02230AF
:10512000310509F04AC08BE390E024E637E049C03E
:105130002132310511F12232310579F13EC082E18F
:1051400090E02FE937E03DC099278130910561F06B
:1051500040F08230910559F0039779F5E0E4F7E0EB
:1051600008C0E0E6F7E005C0E2E5F7E002C0E6E4EB
:10517000F7E0849190E09F0124C06115710541F032
:1051800061307105D1F489E090E02FE837E019C073
:1051900089E090E026E737E014C06115710541F021
:1051A0006130710551F48CEB90E021EB37E009C0E0
:1051B00080E490E02DE638E004C080E090E020E05C
:1051C00030E0FA0131832083089580E189BD82E1D6
:1051D00089BD09B400FEFDCF8091D8008F7D8093FA
:1051E000D8008091E00082608093E0008091E00030
:1051F00081FDFCCF0895CF92DF92EF92FF920F9343
:105200001F93CF93DF93EC018B017A010E94592AFF
:10521000811133C0E114F10439F0F70180819181EB
:10522000081B190BC80FD91FC12CD12C0115110552
:1052300019F18091E80085FD16C08091E8008E7715
:105240008093E800E114F10449F0F7018081918135
:10525000C80ED91ED182C08285E00FC00E94592A93
:10526000882321F30AC089918093F100015011092C
:10527000FFEFCF1ADF0ADACF80E0DF91CF911F91E5
:105280000F91FF90EF90DF90CF9008952091210330
:10529000309122032617370748F06115710539F45C
:1052A0002091E8002E772093E80001C0B901FC01AD
:1052B00020E06115710579F180911A038823F1F1DD
:1052C0008530F1F18091E80083FD3CC08091E800D9
:1052D00082FD2EC08091E80080FFEBCF2091F3008B
:1052E0008091F20090E0922B6115710551F08830A9
:1052F000910538F421912093F100615071090196D4
:10530000F3CF21E0089709F020E08091E8008E7744
:105310008093E800CECF2111CFCF0AC080911A032D
:10532000882361F0853061F08091E80083FD0AC038
:105330008091E80082FFF2CF80E0089582E0089536
:1053400083E0089581E008952091210330912203A4
:105350002617370748F06115710539F42091E800E8
:105360002E772093E80001C0B901FC0120E061150F
:10537000710591F180911A03882309F440C08530AA
:1053800009F43FC08091E80083FD3DC08091E800B2
:1053900082FD2FC08091E80080FFE9CF2091F300CB
:1053A0008091F20090E0922B6115710559F08830E0
:1053B000910540F424912093F100319661507109D8
:1053C0000196F2CF21E0089709F020E08091E800F3
:1053D0008E778093E800CBCF2111CCCF0AC080918B
:1053E0001A03882361F0853061F08091E80083FD25
:1053F0000AC08091E80082FFF2CF80E0089582E049
:10540000089583E0089581E00895982F973068F516
:105410009093E900981739F07091EC002091ED001D
:105420005091F00003C0242F762F50E021FD02C0E0
:105430009F5FECCF3091EB003E7F3093EB003091DB
:10544000ED003D7F3093ED003091EB003160309303
:10545000EB007093EC002093ED005093F00020914E
:10546000EE0027FDE5CF80E008958F708093E9007E
:1054700081E0089580911B0387FF11C08091E800AF
:1054800082FD05C080911A038111F8CF11C080916F
:10549000E8008B770BC080911A03882349F0809134
:1054A000E80080FFF8CF8091E8008E778093E800D5
:1054B00008952091E4003091E50095E64091EC00DC
:1054C000842F817040FF23C08091E80080FD1DC0C3
:1054D00080911A03882399F0853099F08091EB0030
:1054E00085FD11C04091E4005091E5002417350777
:1054F00029F3915011F09A01E1CF84E0089582E000
:10550000089583E0089581E0089580E00895409132
:10551000E80042FFDDCF08950E94FA2A0E94022B84
:10552000E0EEF0E0808181608083E8EDF0E0808152
:105530008F77808319BCA7EDB0E08C918E7F8C9320
:1055400080818F7E80831092190308950F931F939B
:10555000CF93DF930E94FA2A0E94022BC8EDD0E07D
:1055600088818F77888388818068888388818F7D10
:10557000888319BC10921A03109216031092180314
:105580001092170300EE10E0F80180818B7F80837A
:1055900088818160888342E060E080E00E94052A83
:1055A000E1EEF0E080818E7F8083E2EEF0E08081AA
:1055B00081608083808188608083F80180818E7F14
:1055C0008083888180618883DF91CF911F910F91C3
:1055D0000895E8EDF0E080818F7E8083E7EDF0E0D4
:1055E00080818160808384E082BF81E080931903A1
:1055F0000C94A62AE8EDF0E080818E7F80831092E3
:10560000E20008951092DA001092E10008951F92CE
:105610000F920FB60F9211242F933F934F935F93E6
:105620006F937F938F939F93AF93BF93EF93FF936A
:105630008091E10082FF0BC08091E20082FF07C0F1
:105640008091E1008B7F8093E1000E947D2D80910D
:10565000DA0080FF1FC08091D80080FF1BC08091BE
:10566000DA008E7F8093DA008091D90080FF0DC030
:1056700080E189BD82E189BD09B400FEFDCF81E0F2
:1056800080931A030E94692705C019BC10921A035F
:105690000E9477278091E10080FF19C08091E2008D
:1056A00080FF15C08091E2008E7F8093E2008091A0
:1056B000E20080618093E2008091D8008062809354
:1056C000D80019BC85E080931A030E947B27809143
:1056D000E10084FF30C08091E20084FF2CC080E1B3
:1056E00089BD82E189BD09B400FEFDCF8091D8005B
:1056F0008F7D8093D8008091E1008F7E8093E100C0
:105700008091E2008F7E8093E2008091E2008160D0
:105710008093E20080911603882311F084E007C093
:105720008091E30087FD02C081E001C083E08093A7
:105730001A030E947C278091E10083FF29C0809199
:10574000E20083FF25C08091E100877F8093E10024
:1057500082E080931A03109216038091E1008E7FFD
:105760008093E1008091E2008E7F8093E20080913F
:10577000E20080618093E20042E060E080E00E940D
:10578000052A8091F00088608093F0000E947A27BB
:10579000FF91EF91BF91AF919F918F917F916F9109
:1057A0005F914F913F912F910F900FBE0F901F90DF
:1057B00018951F920F920FB60F9211242F933F93BB
:1057C0004F935F936F937F938F939F93AF93BF9309
:1057D000CF93DF93EF93FF93C091E900CF70809157
:1057E000EC00D82FD17080FDD0E81092E9008091B4
:1057F000F000877F8093F00078940E941D2C109217
:10580000E9008091F00088608093F000CD2BCF708C
:10581000C093E900FF91EF91DF91CF91BF91AF91DC
:105820009F918F917F916F915F914F913F912F91B8
:105830000F900FBE0F901F9018951F93CF93DF937B
:10584000CDB7DEB7AA970FB6F894DEBF0FBECDBFB7
:10585000EBE1F3E08091F100819323E0E332F20782
:10586000C9F70E9488278091E80083FF2EC18091AC
:105870001B0390911C03492F50E04A30510508F05A
:1058800024C1FA01E953FF4F0C94FD2D803821F01B
:10589000823809F01AC108C080911703909118034B
:1058A000992389F082600FC080911F038F70873029
:1058B00008F00BC18093E9008091EB0085FB8827FD
:1058C00080F91092E9009091E800977F9093E800AA
:1058D0008093F1001092F100D1C0282F2D7F09F0A4
:1058E000F4C0882319F0823061F0EFC080911D036D
:1058F000813009F0EAC0933009F080E0809318030A
:105900002EC080911D0381112AC080911F038F70CA
:105910002FEF280F263008F0D8C08093E90020919F
:10592000EB0020FF1CC0933021F48091EB008062DB
:1059300014C09091EB0090619093EB0021E030E077
:10594000A90102C0440F551F8A95E2F74093EA006F
:105950001092EA008091EB0088608093EB00109237
:10596000E9008091E800877F8093E8000E943A2A4E
:10597000ACC08111AAC010911D031F778091E30074
:105980008078812B8093E3008091E800877F80936B
:10599000E8000E943A2A8091E80080FFFCCF8091C5
:1059A000E30080688093E300111102C082E001C02F
:1059B00083E080931A0389C08058823008F085C044
:1059C00080911D0390911E038C3D53E0950779F55E
:1059D00083E08A838AE289834FB7F894DE011396C5
:1059E00020E03EE051E2E32FF0E050935700E491D5
:1059F00020FF03C0E295EF703F5FEF708E2F90E0C5
:105A0000EA3010F0C79601C0C0968D939D932F5F2A
:105A1000243149F74FBF8091E800877F8093E800E9
:105A20006AE270E0CE0101960E94462916C060919C
:105A30001F0370912003AE014F5F5F4F0E948428C7
:105A4000BC01892B09F441C09091E800977F9093A5
:105A5000E80089819A810E94A4298091E8008B77CF
:105A60008093E80032C0803881F58091E800877F1C
:105A70008093E800809116038093F1008091E80004
:105A80008E7772CF811121C080911D0390911E03EA
:105A900099270297D4F48091E800877F8093E800EB
:105AA00080911D03809316030E943A2A8091160369
:105AB000811106C08091E30087FD02C081E001C032
:105AC00084E080931A030E947E278091E80083FF80
:105AD0000AC08091E800877F8093E8008091EB0006
